:020000040001F9
:1080000060300020F58001000F8101001181010026
:108010000000000000000000000000000000000060
:1080200000000000000000000000000013810100BB
:108030000000000000000000158101001781010010
:108040001981010019810100FD83010019810100DE
:108050001981010000000000C581010019810100A3
:1080600019810100198101001981010019810100A4
:108070001981010019810100198101001981010094
:10808000198101001183010019810100198101008A
:1080900031830100198101008583010019810100EC
:1080A000198101001981010000000000000000009A
:1080B00000000000000000000000000000000000C0
:1080C0000348854600F06CF800480047559E0100C3
:1080D00060300020401E00BF00BF00BF00BF00BFD7
:1080E00000BF00BF00BF00BF00BF00BF00BFF1D195
:1080F000704700000321094802680A4302600848EB
:1081000002680A4302600748804707480047FEE7C5
:10811000FEE7FEE7FEE7FEE7FEE70000240500407D
:1081200054050040A9830100C180010030B50B4611
:10813000014600202022012409E00D46D5409D4241
:1081400005D31D469540491B2546954040191546C7
:10815000521E002DF1DC30BD03460B439B0703D0BC
:1081600009E008C9121F08C0042AFAD203E00B78FC
:108170000370401C491C521EF9D27047D2B201E074
:108180000270401C491EFBD270470022F6E710B572
:1081900013460A4604461946FFF7F0FF204610BD75
:1081A000064C0125064E05E0E36807CC2B430C3C4A
:1081B00098471034B442F7D3FFF786FF24AC010090
:1081C00044AC0100F8B50024FF25013501262746FF
:1081D0000094284602F00CF9002808D03448406882
:1081E000304204D0334800212818344301602D1D4B
:1081F00076007F1CADB2042FEBD3FF207D3002F060
:10820000F7F8002807D02C480021016040070443FC
:108210002A48006900902A4F200712D00126002525
:1082200026420AD02748AA00111808690969C00423
:10823000C00E8903BA58890F904776006D1C042D33
:10824000EED3002C30DA00241D4E082130194030C6
:108250004156491C25D0077ABD06AD0E284601F0CF
:108260002FFB80003658002E1BD0BF090121A940EA
:10827000154AA80080180068009A8003800F1142F8
:1082800002D0022802D00CE003280AD1032F05D126
:1082900002280AD00221284602F09AF839462846D8
:1082A000B047641C062CCFD3F8BD0321F3E70000D0
:1082B00000630040006000407C6100400005005009
:1082C0001028002000650040000700508307FF22AF
:1082D000DB0E9A408907090E994000280BDA000747
:1082E000000F0838830808489B001818C369934397
:1082F0000B43C3617047830804489B001B18186830
:10830000904308431860704700ED00E000E400E08F
:1083100010B506490020086048608860C8600349BD
:1083200040390860486002F0BDFA10BD40110140BC
:10833000FEB50020C043124D029068690190684666
:108340002E6901F0C1FB074601F0C2FC0446002F74
:1083500008D002AA0199009801F0D6FB029801F01A
:1083600001FD06E0029801F0FDFC002801D1002C7F
:1083700002D0304601F0ACFA00206871FEBD00006A
:10838000B020002010B507484068002807D080477B
:10839000002803D00022114600F0A0FA10BD01F021
:1083A00019FC10BDD820002010B501F061FC002898
:1083B00005D00E490C484860C8130D4988610D4826
:1083C000018CC9B201290ED1818C09070BD1018D15
:1083D0000906090F042906D1808D0006000F02D17D
:1083E00005490120886010BDDFFF07C0000500407F
:1083F000006C0040C00F00F0000600407CB51B4C34
:10840000A0681B4E0025002818D0A5601948806977
:10841000C1B2194800F091FA002805D001216A463E
:1084200011700190684607E013488168C068401ADF
:10843000012803D16846057071688847E069002803
:1084400003D0E561032002F04DF8606A00280BD0EC
:108450006562084980390868086002216A4611701F
:1084600001907168684688477CBD0000002100408B
:108470006C20002000250040182700200FB410B504
:1084800003A9044B044A029800F024F810BC08BC6D
:1084900004B01847619B0100D420002030B474461A
:1084A000641E2578641CAB4200D21D46635D5B00F0
:1084B000E31830BC184702E008C8121F08C1002AA0
:1084C000FAD170477047002001E001C1121F002A55
:1084D000FBD17047FFB581B00546002706E025288F
:1084E0000AD0049A039990476D1C7F1C28780028B5
:1084F000F5D1384605B0F0BD002269786D1C1046F4
:108500002E2913D1697804226D1C2A2909D10299D8
:108510006D1C01C9029109E00A235843303808183C
:108520006D1C29780B46303B092BF5D92B78002B95
:10853000DFD0632B07D0732B10D0049A1846039911
:1085400090477F1C2DE002996C460B782370091D23
:108550000291002161706E46012104E0029940C938
:1085600002910021C94352070AD5002400E0641C8F
:1085700084420DDA8C42FADB325D002AF7D107E043
:10858000002400E0641C8C42FCDB305D0028F9D143
:108590003F1904E03078049A761C03999047641ED2
:1085A000F8D26D1CA2E7000038B50D4C60780228A7
:1085B00002D00C490120886069460B4800F09AF906
:1085C000002802D000F016F838BD084880218160EC
:1085D0006A46074B1278DA6102226270416038BD48
:1085E0006C200020002000402827002000230040AD
:1085F000002500401CB506490120C86005494870A7
:1086000003206A4610704968684688471CBD000010
:10861000002000406C2000200449002048700449DC
:108620000122CA604A600349086070476C2000203C
:108630000020004000250040F7B582B00026054626
:10864000167000781446002805D02846039901F0DA
:1086500037FD060008D1A87800281ED02078039F97
:10866000001D1F2802D90C2005B0F0BD684679DF37
:108670000028F9D121780322481C20707A542178EF
:108680001922481C20707A542078C1196846008845
:1086900002F0BCF9217840182070E8780223002805
:1086A00010D02078039A411C21701354207803992C
:1086B000471C012227700A542078EA78471C039946
:1086C00027700A546868002815D000214156207888
:1086D0008C460246C01C03991F28C4D8501C207029
:1086E0008B5422780A23501C20708B5420786246C9
:1086F000431C23700A542889002809D02846009476
:10870000062202210830039B02F0F4F90600ABD1E7
:10871000288A002809D02846009407220321103017
:10872000039B02F0E7F906009ED1288B002809D0B0
:1087300028460094152214211830039B02F0DAF920
:10874000060091D1286A002805D02246039901F03D
:1087500011F9060088D1686A002805D022460399DD
:1087600001F07CFC060084D12C20405D002806D05E
:1087700022462846039901F0A2FF0600C7D13046E1
:1087800072E710B501220221002000F0C9FE002886
:1087900001D0072812D107220221012000F0C0FEDB
:1087A000002801D0072809D100210A22084600F03C
:1087B000B7FE002801D0072800D1002010BD00001E
:1087C00030B5A3B0302101A8FFF7DFFC02216846D5
:1087D0000171002484710521C171302116A8FFF7B1
:1087E000D4FC012510A805850D481B9024210DA857
:1087F000FFF7CBFC10A8057040201190B420129018
:10880000084B0DAA0021009401A800F0A3FA00284B
:1088100003D00022114600F061F823B030BD000003
:10882000042000202BA40100044842680121C9054E
:108830000B46934383600A40C260704700050050B6
:1088400070B50024064D06E06968E000085C01216F
:1088500001F09CFC641C28788442F5D3002070BD94
:1088600098200020F8B515460C460646052A01D288
:108870000720F8BD01F058FD002803D101F02AFDC2
:108880000028F6D1114900204E600C7008618D60FF
:1088900048610F4D0DE0E000296880190091817852
:1088A0006A46517000780B4A694601F0BFFC002807
:1088B000DFD12046641EE4B20028ECD10348064A0A
:1088C00000210C3000F04AF8F8BD0000982000208C
:1088D00020AC0100719B0100699A0100BFF34F8F2A
:1088E00003490248C860BFF34F8FFEE70400FA0552
:1088F00000ED00E08268C36893420AD082688388F2
:108900001A4003689A5C0A708168491C81600020E3
:10891000704705207047002906D0002A02D0531E58
:10892000134203D0092070470E20704701608380F6
:1089300000218160C160084670478268C3689B1A45
:108940008288934208D8C36813400268D154C16832
:10895000491CC160002070470420704770B5114C5D
:10896000A568002D06D0002A06D0002804D00023D8
:10897000247809E0082070BD072070BD24265E43DE
:10898000AE5D002E04D05B1CA342F7DB042070BD5B
:10899000242401265C432E5564196170A261036092
:1089A000002070BDB0200020FFB59807002481B0E2
:1089B0001E4615460F4600280BD1002E09D001F0A7
:1089C0000DFE22490A9888610F70324600208E60A1
:1089D00008E0072005B0F0BD24234343D4549B187E
:1089E0001C75401CB842F7DB24204743BB19032009
:1089F00048700F461846CB601946183000221823DD
:108A00002E465E43D3005B181C705C709D705860EE
:108A10003018521C032AF5DB0020C0433861BC70BB
:108A2000FC7001240A482405046003211420FFF788
:108A30004DFC08480460084C0198A06003211120F7
:108A4000FFF744FC606878610020C3E7B020002095
:108A500080E200E000E100E000150140FEB50446C0
:108A60001D48174682680D46002A0CD001788C42BA
:108A700001D2052D01D20720FEBD214624235943F2
:108A8000535C012B01D00820FEBD881840780128D6
:108A90001DD0002601F0F2FFC0000F490190C96807
:108AA0004018694602F014F8002812D00121017024
:108AB0000A49446049680830E2C007490198C9681A
:108AC00041180098487001F07BFE0020FEBD2E4644
:108AD000E0E70420FEBD0000B020002000150140AA
:108AE000F8B5144D0446A868002809D029788C42AE
:108AF00001D30720F8BD24216143405C012801D047
:108B00000820F8BD01F0BAFFC600E86869463018D1
:108B100001F0DEFF00280AD0022101704460E868FD
:108B200031180098487001F04BFE0020F8BD042079
:108B3000F8BD0000B020002010B501460148FFF745
:108B4000D9FE10BD18270020FFB5584F83B000266E
:108B50000D4604467E707A6000292AD0A8882968CC
:108B600082B25348FFF7D7FE002823D1A889A9680D
:108B700082B24F481030FFF7CEFE00281AD160783D
:108B80004C4903228000401802602278304692004F
:108B900051180E60484D6178E96021786961A168DB
:108BA0006962454E61794036002905D00E21F16297
:108BB00003E0072007B0F0BDF0622379022B17D045
:108BC0003E493F4A012B45D004232B608860C86191
:108BD000F06A40084000F062581FA8602861012038
:108BE0009060106078700C98008800283FD043E0B7
:108BF00001F09AFB002803D101F06CFB0028D9D1C9
:108C00003048694600680090A07801F095FB002884
:108C1000D0D1401E2861A078A860F06A01210843E5
:108C2000F0622848284A40680190E07801A901F0E4
:108C3000FDFA0028BED1E078012101F0A7FAE07822
:108C400001F03EFB002801D0002000E0012001F0EF
:108C500049FCC8E704232B608860C861F16A0120E1
:108C60000143F162E1782961A178A960B8E70C9924
:108C700038780880401C387000211448C94381604E
:108C8000A12189004160124904200860114B069916
:108C90001A68FF2424048907090EA24309040A4321
:108CA0001A600D490860002084E700006C20002055
:108CB0001827002000070050002500400021004038
:108CC0000020004018AC0100BD9B010000230040C3
:108CD00080E200E000E400E000E100E010B50146C1
:108CE0000448FFF72AFE0446022001F0FBFB204661
:108CF00010BD00002827002070B50C4692B000215E
:108D00006A46117007251171002809D0C1784907FA
:108D10000CD502A9FFF790FC002808D102AE00E0B4
:108D20000026002C0ED0E078002802D0284612B091
:108D300070BD01AA0AA92046FFF77EFC0028F6D1E3
:108D40000AAA00E00022684603790178304672DF03
:108D5000EDE7000070B50D4604991646040042D0B8
:108D6000002E40D0424800224271C360016124229B
:108D700031464048FFF7F0F900F0B8F83D4934318A
:108D80000846103801602031816030215438FFF7E7
:108D9000FCF93848217830380170A1788170E17889
:108DA000C170617841706269216942610161E26864
:108DB000A168C26081600146E369A269CB618A61F2
:108DC000616A002919D00146A4310246B0324162DD
:108DD0008A60636A1B880B80616A436A898899800C
:108DE0000021436A06E00E2070BD666AB668765CB4
:108DF0005654491C9E888E42F7D8A16A00291CD07F
:108E00001C4AAC3211460C398A608162A36A9B8885
:108E10008B80A16A836A098819800021836A04E033
:108E2000A66AB668765C5654491C9E888E42F7D86E
:108E30002C210A5D0F4910390A73216A002909D0D3
:108E40000B4914310162226A52884A80216A026AFF
:108E5000098811806168002904D00549891D416095
:108E600061684160034829463038FFF745FF70BD0F
:108E7000342000203026002010B502881A4C102A19
:108E800017D00021112A17D0192A11D18079002872
:108E90000ED1607901281BD002281FD003281FD0D3
:108EA000042805D12171E2680846002A00D09047C5
:108EB00010BD8088208110BD617080882189884222
:108EC000F9D1012005E021690029F4D0884710BDBF
:108ED000022000F033F80028F5D110BD0320F8E798
:108EE000032020710420F4E73420002010B507216E
:108EF0000148FFF74AF910BD4C20002010B50D487D
:108F00000078012814D10C4C6078002810D16079C9
:108F1000002802D074DF00280BD101206070607936
:108F200000F00CF8002803D02169002900D0884700
:108F3000002010BD3026002034200020F0B5754CF4
:108F400087B06071002606A8069601F033FB012762
:108F5000082806D000286FD10698002802D0277074
:108F6000D4E00696FFF7C2FF6B4D6878002802D068
:108F70006079012805D0A87800280AD060790228F5
:108F800007D1E168002903D0E7700820884700E096
:108F9000E6706079012808D16878002809D05D481A
:108FA000193001F0E3FA002803D06079022802D0DA
:108FB0000CE002206071A878002805D055481930CF
:108FC00001F0D4FA002801D103206071287B002829
:108FD00004D16079032801D104206071287E002823
:108FE00004D16079042801D166712671E1680029F5
:108FF0000AD06079032801D0042805D128780028F8
:1090000002D06078002818D0A67018216846FFF7B3
:10901000BCF86846067001960672039660790128CE
:109020000FD0022816D03C4E24363746543F032832
:109030001CD004285ED13BE069E0A7700720884778
:10904000E3E734481830019068460770468206828C
:10905000277152E02F48183001906846077029891F
:109060004182A98801820220207146E0A88A6946CF
:109070004882288A08822848243001F09FFD002871
:1090800005D02878002802D06078002801D003207D
:109090002FE002206946087204200396F8701E48EB
:1090A00000213038FFF728FE002830D1052020E0CD
:1090B000A88B69460882288C48821748243001F022
:1090C0007DFD002805D02878002802D0607800288F
:1090D00001D004200DE002206946087204200396A6
:1090E000F8700D4800213038FFF706FE00280ED139
:1090F000062020716079002803D0684673DF0028BD
:1091000005D1E168002901D020798847002007B007
:10911000F0BD0000342000203026002070B5054648
:1091200001461C220F48FFF717F80F4C0026267047
:109130002968002907D00822A018FFF70DF820465B
:1091400008307ADF02E0084808307BDF002808D1C9
:10915000401E608004486670044A0021001DFFF72D
:10916000FDFB70BDFC2600205420002019AA010040
:10917000F8B5224C028800271F4DE689102A16D028
:1091800029464968112A21D0122A2DD0502A1CD1F3
:10919000C288801DB24218D1028B022A15D1C27E2C
:1091A000837E10021843C007C00F0CD112E08188E3
:1091B000698001461048082216311030FEF7CCFFB6
:1091C0006F70002E01D100F01DFCF8BD0020C043DF
:1091D00068806F700846FFF783FC0028F5D0A1690E
:1091E0000029F2D08847F8BD811D034808221030BD
:1091F000FEF7B2FFE7E7000054200020FC26002025
:1092000010B50446FFF7B4FF2146064800F040F8C9
:10921000204601F01DF92046FFF72EFE204600F003
:10922000B7F810BDD825002030B5184B0D46040006
:109230000FCB85B003936B4607C324D0002D22D0FB
:109240000020C043A0822868A0610020A0752146AC
:10925000684663DF002814D12178684681740121B3
:109260000182A21C04A90120A0DF002809D12946FF
:10927000204601F0D5F9002803D12946204601F007
:1092800051FB05B030BD0E20FBE7000008AC01002B
:1092900000281ED000291CD00A88102A14D0112AB8
:1092A00014D0502A15D1CA88038A891D9A4202D146
:1092B0000B8B022B0ED083889A420AD18369002B34
:1092C00007D00A8B1A311847898801E00021C94369
:1092D00081827047CA7E8B7E11021943C907C90F6C
:1092E00000D001218175704707B584B000280DD0EA
:1092F000828A114B9A420BD0827D002A08D06A469E
:10930000128B142A06D9072007B000BD0E20FBE7F8
:109310000820F9E7002200920192029203928289CA
:109320006B461A80039106A9029101219970808AE7
:109330006946A6DFE8E70000FFFF00007CB5134E9A
:1093400000250C463060002918D06946002000F046
:10935000B3F8002819D101A9012000F0ADF80028C8
:1093600013D1684601790020002901D0022004E0D1
:1093700069460978002900D00B2020707068002809
:1093800002D1FFF7FEF9054628467CBD28200020C3
:1093900010B51C4C0188606810290DD011290AD124
:1093A000401E606007D1FFF7ECF9002803D0216868
:1093B000002900D0884710BD00281ED100210122BD
:1093C000084600F0ADF8002801D0072811D1072287
:1093D0000221012000F0A4F8002801D0072808D1BC
:1093E00004220221002000F09BF8002805D0072865
:1093F00003D02168002900D088476068401C606065
:1094000010BD00002820002010B5032000F002FA53
:10941000002801D0062800D1002010BDF8B507466D
:109420000024224802E0641C042C19D2A2008258B5
:10943000BA42F8D1042C13D21D4E1E4DF0690029FA
:1094400028D001290DD002290AD160002018401926
:109450004578002D04D0F168002901D028468847BE
:10946000F8BD610062182946AD5C51180091497839
:10947000002909D071680A2251430D4A521CFFF796
:10948000EDFA002800D177700098817808481030F4
:109490000155DEE7FFF724FB054861006118103035
:1094A0004919005D8D78A842D3D0F8BDD8AB010032
:1094B00008200020F425002004280CD2074A126955
:1094C000074B80001B5C01209840904300D0012096
:1094D0000870002070470020FAE7000000050050E7
:1094E000D8AB010010B5042806D0072810D00A28F0
:1094F00001D101F022F910BD08481321408876DF20
:1095000008E00028F7D000221146FFF7E7F910BD68
:10951000FFF7F4FC0828F4D110BD00000020002063
:1095200070B50023042811D2440004190D4D012AFE
:1095300002D101290DD0002246008019094E801960
:1095400000290CD0012906D0022906D0072318468D
:1095500070BD0D30C2B22A55F9E74270F7E782704C
:10956000F5E70000F425002010B5054A0146127AFF
:109570000020D20702D0084600F054F810BD0000C9
:109580000820002070B50E46204905464E608D60CB
:109590000020CA60A9071ED50024012211462046DA
:1095A000FFF7BEFF641C042C02D20028F5D012E0A5
:1095B000002810D1720804211548FFF753F900283C
:1095C00009D1FFF73DF9002805D11048114A0021C3
:1095D0001C30FFF7C3F9E90706D00F220E495205E8
:1095E0008A600023CB608A6100280DD107480B4AAE
:1095F00000211430FFF7B2F9002805D10348084ACA
:1096000001211830FFF7AAF970BD000008200020E2
:10961000E8AB01005198010000050050B99C010021
:1096200029880100FEB5784906464F684B690093CA
:10963000BB00FB1800200122019352050546734C24
:109640003300FEF72BFF180D13133749596C828E28
:10965000858E97A1A5A5A5A5A5C3C8CDD4DADA1294
:109660000B225205A260E5600D70FEBD052080054D
:10967000A060E56060680F235B055840800209D553
:10968000A260E560022E02D1E120C0000AE07D2048
:10969000400107E0E260A560022E01D1C82001E090
:1096A000FF2091300E706421FEF740FD78430022C8
:1096B000014646E005208005A060E56060680F2354
:1096C0005B055840800204D5A260E5601920400186
:1096D000E8E7E260A560E1E705208005A060E560BD
:1096E00060680F235B055840800202D5A260E560E8
:1096F000CDE7E260A560D3E705208005A060E560C6
:1097000060680F235B055840800202D5A260E560C7
:1097100001E0E260A5600E707900002211E00520F2
:109720008005A060E56060680F235B0558408002FB
:1097300002D5A260E56001E0E260A5600E70002243
:1097400039460098FFF78AF9FEBD05239B0544E0E2
:109750006068012189050A468243A2600840E060F2
:1097600010E061680120800502468A43A260014042
:10977000E160E4E761680120800502468A43A26057
:109780000140E1600199C8E70F214905E1601BE054
:109790000F468869FFF7A4F911218A1B1C4E01D0DE
:1097A000002802D0A660E560FEBD012A0BD9104654
:1097B000C82148436421FEF7B9FC7968002241437F
:1097C000B869FFF74BF9E660A560FEBD0F225205B0
:1097D000A260E56015E007239B05A360E5600EE04D
:1097E0000D225205A260E5600122920507E00322E6
:1097F000D205A260E560921001E00F225205E260FE
:10980000A5600E70FEBD000008200020000500507D
:1098100000008000F0B500210B4C0C4D03273F04E5
:109820008A00A25892005619326801238B400340E7
:1098300000D00323BA431B0413433360491C04299B
:10984000EED30020F0BD0000D8AB010000070050AF
:1098500010B500780221FFF7E1FD10BD0022D243D0
:10986000830004490428CA5002D30818403002710A
:109870007047000010280020F0B50025ED43002AB5
:1098800002D00023042601E004230A260B4C04E046
:109890009F00E7597F1C04D05B1CB342F8D32846D5
:1098A000F0BD26185DB2203635729E00A151002A07
:1098B000F5D1E11840310871F1E7000010280020CF
:1098C0000249091828200856704700001028002077
:1098D000F8B5224801694A1C3DD0242251438268D0
:1098E00089184E681E494C6847690079E11B0D02D2
:1098F0002D0AED1C002814D101201A4A00045060E2
:10990000184A403A506018494000086017490860FA
:109910001749012008602F20FEF7DCFB0F490120CA
:109920000871B54200D23546E81900020C49000A18
:10993000403108600A494968001B091B0902090AED
:109940000002000AC91C814204D9012006494004D2
:1099500080390860F8BD00F041FEF8BDB02000205D
:10996000001501404013014080E200E000E100E00A
:1099700000100140F8B50D4611780646881D1446C2
:109980001F2801D90C20F8BD33880720062BFAD3F5
:109990001927FF01BB4202D9164A9342F3D17288BC
:1099A000062AF0D3BA4202D9124FBA42EBD1114F74
:1099B000BB4203D0BA4201D09342E4D8481C0522EE
:1099C00020706A5420781222411C21702A54207879
:1099D0004119308801F01AF821784018C0B220707F
:1099E0004119708801F012F8217840182070002089
:1099F000F8BD0000FFFF000010B500221146FEF781
:109A00006DFF10BDF8B5164800F024F9144D00267E
:109A1000103D144C002807D0616900291BD001209B
:109A20006A461070684615E02878002805D06169FC
:109A3000002910D0684606700CE0687800280CD029
:109A4000A16800226868FFF709F8002803D0A1691F
:109A5000002900D088472E70F8BD6168F1E700004A
:109A600064200020FC260020F8B500260124154DB6
:109A700023E06968F0004718387821466A69814018
:109A8000114218D08A436A6100F01AFC3A782146E4
:109A90002B69914019400346934099420BD1797844
:109AA000012901D0012100E000217B684140002B09
:109AB00001D010469847761CF6B228788642D8D353
:109AC000F8BD00009820002010B50E4900238A78C8
:109AD000CC78A24212D0521CD2B28A70022A00D193
:109AE0008B708A78074B92001C339A580260486941
:109AF00010180002000A4861012010BD0360002018
:109B000010BD0000B0200020F7B5144C0025A76858
:109B100023691EE024215943C9194E68864202D99F
:109B2000301A486017E0801B751900264E600E75CC
:109B30000E699C460B6AB646002E0AD0019E761925
:109B40003602360A8E607646CE6016680E62614630
:109B50001160591CDED12361FEBD0000B020002041
:109B600010B50446C0B2FFF7B9F8204610BD00009A
:109B700070B50646104C0125B540E068FEF7B0FF11
:109B800000280CD16169294207D1304600F098FBCA
:109B90000028206904D0284303E0A943616170BD17
:109BA000A84320616069002228436061A168E068E1
:109BB000FEF754FF70BD00009820002010B500F0A3
:109BC0007FFB002801D0002000E0012000F08AFC8B
:109BD00010BD0000F8B51E4C2078002837D0206951
:109BE000002807D00026E068002805D00025002EB8
:109BF00004D013E00126F6E70125F8E7684651DFB7
:109C0000052806D0002806D000221146FEF766FE81
:109C100004E0012602E0216900988847002D12D156
:109C2000608869460880A06861DF052806D00028A2
:109C300006D000221146FEF751FE04E0012502E0A5
:109C4000E168A0688847002ED8D0002DCFD0F8BD9D
:109C5000D8200020418805480288914204D34088DA
:109C6000814201D801207047002070475C2000200D
:109C70001048018CC9B2012917D1818C090714D170
:109C8000018D09060A0F03D1828D1206120F0ED024
:109C9000090F012903D1828D1206120F07D0032963
:109CA00003D1808D0006000F01D0002070470120F5
:109CB00070470000C00F00F010B50448017AC907D2
:109CC00002D00078FFF7AEFC10BD00000820002095
:109CD000F8B5234801690091457833E02048E90050
:109CE000C0680E1834782AE0182060437168641C3C
:109CF0000818B178E4B2A14200D100240178022909
:109D000002D003291BD113E0154A40682421926830
:109D100041438F18397D002911D000F08BFD0020C0
:109D200038750CE024277843C0180275006A03E0F8
:109D30000B4900228B680869471CF3D108617078D1
:109D4000A042D1D128466D1EEDB20028C6D10448EC
:109D500001690098814201D00120F8BD0020F8BDC2
:109D6000B0200020F8B5044638480027016900916A
:109D700046785CE03548F100C2688D1851E0601CFF
:109D800007D0324A24209268604321468018046A32
:109D900024E02878182141436A68401CC0B2521858
:109DA0002870A978884200D12F70284B5168242050
:109DB0009B684843C0181378012B34D1037D002BD6
:109DC00031D193688360D368C360136903615269BA
:109DD000C2611E4A5279002A00D087601B4B8268FC
:109DE0005B6996469C46D31A1A02194B120A9A428C
:109DF00002D2C368D21808E0724663469A1A120269
:109E0000C368120A934202D99A1A426000E047607E
:109E100087600122C7600275921E0262084600F048
:109E2000D7FC601CABD1287869788842A7D130462E
:109E3000761EF6B200289DD104480169009881423F
:109E400001D00120F8BD0020F8BD0000B0200020A6
:109E5000FFFF7F008EB06EA207CA00240094059217
:109E60000491039005226D4B11462046FEF79CFDA0
:109E7000002803D000221146FEF730FD684A0AABE5
:109E800007CA07C368468486FF21013165480690EA
:109E9000401808900DA80791099100900323624A89
:109EA00006A90AA8FEF750FE002803D0002211469A
:109EB000FEF714FD5D4A5E490320FFF763FB0028AF
:109EC00003D000221146FEF709FD06A90020FFF786
:109ED00035FA002803D000221146FEF7FFFC684641
:109EE000007E02287ED00020694608704D4900237C
:109EF00048225C39082000F04BFC002803D00022E7
:109F00001146FEF7EBFC069468460794047606A813
:109F100060DF002803D000221146FEF7DFFC454831
:109F200000F02CFC002803D000221146FEF7D6FCDE
:109F30001120694608700A223FA168467CDF00288C
:109F400003D000221146FEF7C9FC06941021684692
:109F5000079401833C214183FF2184839131C18394
:109F600006A87ADF002803D000221146FEF7B6FCCF
:109F70003448009069463448FFF756F9002803D06A
:109F800000221146FEF7AAFCFEF71AFC1C2106A8C7
:109F9000FEF7FBF80520C00307900F20000408908F
:109FA0000694032508A805716846C48408A80472AD
:109FB00026480B9026480C9006A8FFF7AFF800281B
:109FC00003D000221146FEF789FC68460471012186
:109FD000417102218171C57105720421417205210F
:109FE000817200E00AE001A9002070DF03A919A036
:109FF000FEF744FA0320FEF7A1FF02E0012073E719
:10A0000048DF0028FCD000221146FEF767FCF7E786
:10A0100053746172742E2E2E00000000482300201D
:10A02000CCAB010048210020A5A90100E594010066
:10A03000CD0C000001920100554152545F5445532C
:10A040005461000005A40100D8250020C1A401002E
:10A05000F999010025730D0A0000000070B505464E
:10A0600000790E46801C1446C0B21178821C8A18F2
:10A070001F2A01D90C2070BD0A46491C2170401CC2
:10A08000B0542078FF22411C21703254207881196D
:10A09000288800F0BBFC21784018C0B22070AA8844
:10A0A000002A09D0A968002908D08019FEF754F8C1
:10A0B0002078297940182070002070BD072070BDDD
:10A0C000F8B514780746A01C15460E461F2803D87D
:10A0D0007878801C1F2801D90C20F8BD1D20001B9A
:10A0E00080B26946864608803019801C7DDF0028D2
:10A0F000F3D13878022805D168460088704501D828
:10A10000092107E078780821002801D0704501D99D
:10A1100068460088421C3255641CE2B2B15429786A
:10A12000801C081828700020F8BD00008207D30E9C
:10A13000FF229A408907090E10B5994000280BDAD2
:10A1400003071B0F083B9C080C4BA400E318DC69B9
:10A1500094430C43DC6107E08408094BA400E41835
:10A16000236893430B432360C106C90E0120884036
:10A17000044908600449086010BD000000ED00E0DB
:10A1800000E400E080E200E000E100E0F3B581B02F
:10A190000F46019800F0F6F9012400281E4E0198A0
:10A1A00017D0FFF78DFB8019403000798009032814
:10A1B00002D0012806D007E01848006901998C40B8
:10A1C000204201D1022100E00321019800F000F9B2
:10A1D000FEBD00F0E3F90028FAD00198FFF770FB0C
:10A1E00005468100C81D0E4AF93089180A6980B2F7
:10A1F00022430A610B49401800210160002FE7D07B
:10A200000198FFF75DFB800030580028E0D0064839
:10A21000AC404460FEBD0000102800200005005046
:10A22000006500400060004000630040F8B5204F2A
:10A230000D4604463819282141560026C8171346F2
:10A24000401C01D0082630E0EA7819462046FFF786
:10A2500013FB411C28D0174BAA78A100C918002A6B
:10A2600003D00A6802239A4301E06A7892000A60E8
:10A27000E978002910D082000F4829781018026967
:10A280000E4B1A400261E206D20C8907890B0A4381
:10A2900001690A43026108E0381840302A780179E0
:10A2A00092011143017100E004263046F8BD000020
:10A2B000102800200007005000650040FFE0FCFF70
:10A2C00003490969C140C807C00F00D00120704789
:10A2D0000005005070B5124DA87B002801D0082061
:10A2E00070BD0F4900204039421E0B182033401C1E
:10A2F000C0B21A722028F8D300242046FFF7AEFA25
:10A30000641CE4B20A2CF8D301210620FFF70EFFEB
:10A3100001200449C00748600120A873002070BDD7
:10A3200050280020006300400248807B002800D0B5
:10A330000120704750280020F8B504461F480D46FC
:10A3400000192030082141560026491C01D008265A
:10A350002FE0A97800291DD0012200212046FFF717
:10A360008BFA411C14D0830015482A781818697894
:10A370000369144F3B4003610369E706FF0C920732
:10A38000920BC907C90A3B430A431343036104E024
:10A3900004260EE00121C94301720B4A0320A100EB
:10A3A000891808606A780120A0400849012A02D073
:10A3B000C8603046F8BD8860FBE700001028002028
:10A3C00000650040FFE0ECFF000700500005005072
:10A3D000820006481018026803231B049A43026097
:10A3E000026809040A430260704700000007005039
:10A3F000034940180068012800D000207047000081
:10A400000060004070B516460D46002405E0285D4A
:10A41000FEF764FC0028FAD1641CB442F7D30A208A
:10A42000FEF75CFC0028FAD170BD10B500280BD0F7
:10A43000032808D10220FFF797F8002803D0002254
:10A440001146FEF74BFA10BD00F077F910BD000081
:10A4500070B50188194C0546102912D011291BD05E
:10A4600020464088132924D0522909D100231A46B6
:10A470001946A9DF002803D000221146FEF72EFA64
:10A4800070BD0720FFF770F8002803D000221146A6
:10A49000FEF724FAA8880AE00020FFF765F80028F4
:10A4A00003D000221146FEF719FA0020C043608055
:10A4B00070BD00231A4685217FDFDBE700200020E6
:10A4C00010B50078002809D105483B21408876DF87
:10A4D000002803D000221146FEF700FA10BD00004C
:10A4E0000020002010B51D4A1D490300FDF7D6FFCE
:10A4F00005040B3120271200487801281FD00228BC
:10A5000008D1032005E04878002804D0032801D1B1
:10A510000220487010BD134B04201860124B01201C
:10A5200018609368D2689A42F3D0FEF73DF810BDE8
:10A530004878012806D0022804D00328F7D1FEF776
:10A540006BF810BD9068D1688142EED1FEF752F8E9
:10A5500010BD48780128E8D010BD00002827002051
:10A560006C20002000250040002000400021425CBB
:10A57000002A01D001207047491C0629F7D300208A
:10A58000704700000449081828214156042901DBBE
:10A590000120704700207047102800200449081847
:10A5A00028214156042901D201207047002070471C
:10A5B0001028002007490979490701D4082070476D
:10A5C000002804D0044949780160002070470E201B
:10A5D00070470000742000203827002070B5012447
:10A5E0000B49600408600B494010886009494039F4
:10A5F0008860094D6C602F20FDF76CFDAC60074D45
:10A6000000242F206C61FDF765FD2C7170BD0000EA
:10A6100080E100E04013014000100140B020002024
:10A6200070B500240546601C90B00007000F08A913
:10A63000103008940870601C0007000F103048703C
:10A640008878F9263040801C88701C2101A8FDF70D
:10A650009CFD6946087910210843694608710294F7
:10A6600008A80494059407940690287808A988718E
:10A670000320694688841120009408704870887807
:10A68000F7213040801C0840EF210840012630436C
:10A690006946887014210AA8FDF777FD09A80A9079
:10A6A00068460B9069460E8614204C8688862B4699
:10A6B00068880C330AAA01A9A2DF10B070BDF7B5F3
:10A6C00082B002981446806A0F46002833D0029860
:10A6D00000252030009028E00298816A0C20684311
:10A6E0000E18217830794A1C2270C01C78542078CA
:10A6F0001622411C21703A542078C119308800F08C
:10A7000085F921784018C0B22070B288002A09D09B
:10A71000B16800290FD0C019FDF71EFD20783179EE
:10A72000401820706D1C0098EDB2007BA842D3D871
:10A73000002005B0F0BD0720FBE710B50020FEF7B4
:10A7400013FF002803D000221146FEF7C7F8FEF7DA
:10A750005BFE002803D000221146FEF7BFF83CDF65
:10A76000002803D000221146FEF7B8F810BD10B53E
:10A7700008461146C046C04610BD0000002803D060
:10A780000249C860002070470E207047D820002082
:10A7900070B5002901D08C0701D0072070BD064C90
:10A7A0000125A16062800549636010DF0028F5D1B2
:10A7B000257016202EDF70BDD82000206FA7010065
:10A7C00001200249000508607047000000E200E037
:10A7D000F0B5174F2421BC6841430D1939694A1C53
:10A7E00009D024224A4316196B687268934204D830
:10A7F000D21A726029623861F0BD0A4602E00A4648
:10A80000396A9B1B4E1C0BD024264E4337197E6899
:10A810009E42F4D324264E4336197768FF1A776098
:10A820006B60296224214A4311190862F0BD0000BF
:10A83000B020002070B5194C2269A5681346114656
:10A8400006E0814207D00A46242671434919096A65
:10A850004E1CF6D170BD002EFCD08A420CD12420B3
:10A8600043435819006A2061401C05D10C4B01205C
:10A8700098600023636160712420414348192423B8
:10A8800041685A43006A52191062421CE2D02422E5
:10A890005043401942685118416070BDB0200020FB
:10A8A00000100140F8B51D4C2569681C35D01C48C6
:10A8B000002640686169401A07023F0A19E0242017
:10A8C0004543A0682A185068B84214D8A3693F1AB3
:10A8D0008619156A002B09D0D1699069984700281C
:10A8E00007D000221146FDF7F9FF02E09169D06917
:10A8F0008847681CE3D1A178E078814206D1401CEA
:10A90000C0B2E070022801D10020E07003490006C7
:10A91000800D1C310E50FFF753FFF8BDB020002012
:10A920000015014070B58EB005461C216846FDF744
:10A930002CFC694608780C210843694608700024FD
:10A9400001940394049405940694287808A98870C7
:10A95000022069460884601C0007000F103007942D
:10A96000087711204877887FF9210840F721801C5B
:10A970000840EF21084001263043694688771421BA
:10A9800009A8FDF702FC08A8099007A80A906946E3
:10A990008E851420CC85088668882B1D09AAA2DF25
:10A9A0000EB070BD70B50178002909D0012901D021
:10A9B000022904D1002240681146FDF78FFF70BDC7
:10A9C000104C0F4D20782818FEF7B6F82078401C60
:10A9D000C2B2A81822702038C07F0A2801D0142AD9
:10A9E000EDD307490848FEF77FFC082805D000286A
:10A9F00003D000221146FDF771FF0020207070BDCA
:10AA00003421002000200020D82500200870000AF2
:10AA1000487002207047000038B51549154A48882B
:10AA200090420FD04A78144C521CD2B24A70237B09
:10AA3000934208D3083175DF002803D0A1690029AB
:10AA400000D0884738BD00254D70217C002907D0F3
:10AA50003B2176DF002803D0A169002900D0884778
:10AA600061690029EED068460570884738BD00004E
:10AA700054200020FFFF0000FC26002012494868F7
:10AA8000C005C00D19D0103840B2002807DA0207FF
:10AA9000120F083A920892005118C96904E081081F
:10AAA0000A4A8900891809688007C00EC140080653
:10AAB000800F012803D0032803D002207047002014
:10AAC000704701207047000000ED00E000E400E066
:10AAD00042788378521C934200D10022037893423B
:10AAE00001D1002070470A60416840781822504325
:10AAF00008187047F8B51546069C1E460746022200
:10AB0000009400F00AF8002806D1334610222946A6
:10AB10003846009400F001F8F8BDFFB583B0074651
:10AB200000200C9C8646267805463AE07868A90005
:10AB300041180A88684682804988C1800022694697
:10AB400001A865DF002810D1684601780598814288
:10AB500026D17046002801D0002200E00222207891
:10AB6000891841181F2902D90C2007B0F0BD714681
:10AB7000002908D1401CC0B2411C069B049A2170D8
:10AB80001A5401208646217806980A18694601A8B9
:10AB900065DF0028E9D169462078097840182070DF
:10ABA0006D1C3888A842C1DC7046002804D020788B
:10ABB0000699801B401E88550020D6E701790029A0
:10ABC00002D1007B002800D0012070470B09080A41
:10ABD0000000000000509D00110000001200000065
:10ABE0001300000014000000110003001D94010078
:10ABF000120003001D940100130003001D940100C6
:10AC0000140003001D9401009ECADC240EE5A9E097
:10AC100093F3A3B50000406E0001000003000000A4
:10AC20000300000044AC010000200020EC00000004
:10AC3000B684010030AD0100EC200020740F00004C
:10AC4000C68401000000FFFF0100020000000000B8
:10AC500000000000000000000000000000000000F4
:10AC600000000000000000000000000000000000E4
:10AC7000000000000024F4000000000000000000BC
:10AC8000FFFF0000000000000000000000000000C6
:10AC900000000000000000000000000000000000B4
:10ACA00000000000000000000000000000000000A4
:10ACB0000100000000000000000000000000000093
:10ACC0000000000000000000000000000000000084
:10ACD0000000000000000000000000000000000074
:10ACE0000000000000000000000000000000000064
:10ACF0000000000000000000000000000000000054
:10AD00000000000000000000000000000000000043
:10AD10000000000000000000000000000000000033
:10AD20000000000000000000000000000000000023
:04000005000180C1B5
:00000001FF
