:020000040001F9
:1080000090300020358101004F8101005181010035
:108010000000000000000000000000000000000060
:10802000000000000000000000000000538101007B
:108030000000000000000000558101005781010090
:108040005981010059810100F98301005981010022
:1080500059810100000000000582010059810100E2
:1080600059810100598101005981010059810100A4
:108070005981010059810100598101005981010094
:10808000598101000D8301005981010059810100CE
:108090002D83010059810100818301005981010074
:1080A000598101005981010000000000000000001A
:1080B00000000000000000000000000000000000C0
:1080C0000348854600F08CF800480047619C010099
:1080D00090300020401E00BF00BF00BF00BF00BFA7
:1080E00000BF00BF00BF00BF00BF00BF00BFF1D195
:1080F00070470000401E00BF00BF00BF00BF00BFB0
:1081000000BF00BF00BF00BF00BF00BF00BFF1D174
:1081100070470000401E00BF00BF00BF00BF00BF8F
:1081200000BF00BF00BF00BF00BF00BF00BFF1D154
:10813000704700000321094802680A4302600848AA
:1081400002680A4302600748804707480047FEE785
:10815000FEE7FEE7FEE7FEE7FEE70000240500403D
:1081600054050040A5830100C180010030B50B46D5
:10817000014600202022012409E00D46D5409D4201
:1081800005D31D469540491B254695404019154687
:10819000521E002DF1DC30BD03460B439B0703D07C
:1081A00009E008C9121F08C0042AFAD203E00B78BC
:1081B0000370401C491C521EF9D27047D2B201E034
:1081C0000270401C491EFBD270470022F6E710B532
:1081D00013460A4604461946FFF7F0FF204610BD35
:1081E000064C0125064E05E0E36807CC2B430C3C0A
:1081F00098471034B442F7D3FFF766FF50AA010046
:1082000070AA0100F8B50024FF2501350126274694
:108210000094284601F030FF002808D03448406818
:10822000304204D0334800212818344301602D1D0A
:1082300076007F1CADB2042FEBD3FF207D3001F020
:108240001BFF002807D02C48002101604007044391
:108250002A48006900902A4F200712D001260025E5
:1082600026420AD02748AA00111808690969C004E3
:10827000C00E8903BA58890F904776006D1C042DF3
:10828000EED3002C30DA00241D4E08213019403086
:108290004156491C25D0077ABD06AD0E284601F08F
:1082A0000FFA80003658002E1BD0BF090121A940CB
:1082B000154AA80080180068009A8003800F1142B8
:1082C00002D0022802D00CE003280AD1032F05D1E6
:1082D00002280AD00221284601F0BEFE394628466F
:1082E000B047641C062CCFD3F8BD0321F3E7000090
:1082F00000630040006000407C61004000050050C9
:108300003C280020006500400007005010B50649D9
:108310000020086048608860C860034940390860F0
:10832000486002F019F910BD40110140FEB500206F
:10833000C043124D02906869019068462E6901F0B1
:10834000FDFA074601F0CAFB0446002F08D002AA36
:108350000199009801F012FB029801F009FC06E077
:10836000029801F005FC002801D1002C02D0304613
:1083700001F006FA00206871FEBD0000C820002050
:1083800010B507484068002807D08047002803D070
:108390000022114600F03CFA10BD01F02DFB10BD8B
:1083A000EC20002010B501F075FB002805D00E4927
:1083B0000C484860C8130D4988610D48018CC9B24A
:1083C00001290ED1818C09070BD1018D0906090FF6
:1083D000042906D1808D0006000F02D10549012035
:1083E000886010BDDFFF07C000050040006C004042
:1083F000C00F00F0000600407CB51B4CA0681B4E6F
:108400000025002818D0A56019488069C1B2194814
:1084100000F01DFA002805D001216A461170019074
:10842000684607E013488168C068401A012803D1F4
:108430006846057071688847E069002803D0E561E7
:10844000032001F099FE606A00280BD0656208499C
:1084500080390868086002216A46117001907168CD
:10846000684688477CBD0000002100408C20002029
:10847000002500404427002030B47446641E25784F
:10848000641CAB4200D21D46635D5B00E31830BC48
:1084900018470000002805DBC106C90E01208840EE
:1084A000014908607047000080E200E0002805DB19
:1084B000C106C90E012088400149086070470000CC
:1084C00000E100E0002805DBC106C90E012088405C
:1084D000014908607047000000E200E08307FF22C6
:1084E000DB0E9A408907090E9940002808DB8308B3
:1084F00009489B001B181868904308431860704790
:108500000007000F0838830804489B001B18D8692F
:1085100090430843D861704700E400E000ED00E0BC
:1085200002E008C8121F08C1002AFAD1704770473C
:10853000002001E001C1121F002AFBD1704700009A
:1085400010B501F047FA08480069800AC1070748DA
:10855000C90F838805D0012205A1044800F068FEF8
:1085600010BD012203A1F8E700050050E825002016
:10857000310000003000000010B50448002202491C
:10858000806800F0D3FA10BD3313000018200020DB
:1085900038B50D4C6078022802D00C490120886063
:1085A00069460B4800F042F9002802D000F016F8A6
:1085B00038BD0848802181606A46074B1278DA612D
:1085C00002226270416038BD8C20002000200040F3
:1085D0005427002000230040002500401CB5064918
:1085E0000120C8600549487003206A461070496838
:1085F000684688471CBD0000002000408C200020F9
:1086000004490020487004490122CA604A600349B5
:10861000086070478C2000200020004000250040AA
:10862000F7B582B00026054616700078144600287B
:1086300005D02846039901F0CBFC060008D1A878A4
:1086400000281ED02078039F001D1F2802D90C206F
:1086500005B0F0BD684679DF0028F9D12178032202
:10866000481C20707A5421781922481C20707A54B2
:108670002078C1196846008802F0EAF8217840188D
:108680002070E8780223002810D02078039A411C3B
:108690002170135420780399471C012227700A5433
:1086A0002078EA78471C039927700A5468680028E4
:1086B00015D00021415620788C460246C01C0399F3
:1086C0001F28C4D8501C20708B5422780A23501CB9
:1086D00020708B5420786246431C23700A542889EA
:1086E000002809D028460094062202210830039B66
:1086F00002F022F90600ABD1288A002809D02846CA
:108700000094072203211030039B02F015F90600A4
:108710009ED1288B002809D02846009415221421C8
:108720001830039B02F008F9060091D1286A00284E
:1087300005D02246039901F071F8060088D1686AD5
:10874000002805D02246039901F052FB060084D18F
:108750002C20405D002806D022462846039901F0CF
:10876000F3FD0600C7D1304672E710B501220221A1
:10877000002000F05DFE002801D0072812D107225A
:108780000221012000F054FE002801D0072809D161
:1087900000210A22084600F04BFE002801D00728DD
:1087A00000D1002010BD000030B5A3B0302101A8D9
:1087B000FFF70BFD02216846017100248471052139
:1087C000C17130210DA8FFF700FD012510A885809B
:1087D0000D481290242119A8FFF7F7FC18A805747A
:1087E00040201D90B42000941E90084B19AA0DA99A
:1087F00001A800F067FA002803D00022114600F01B
:1088000007F823B030BD000006200020B3A001000F
:10881000BFF34F8F04490348C860BFF34F8F00BFB9
:10882000FDE700000400FA0500ED00E08268C3687F
:1088300093420AD0826883881A4003689A5C0A705F
:108840008168491C8160002070470520704782685C
:10885000C3689B1A8288934208D8C3681340026891
:10886000D154C168491CC160002070470420704782
:1088700070B50F4B05241D785E78AE4215D01D787B
:108880001C789E88B44201DA641C00E000241C704D
:108890005C88DE686C43A41904609B68E800C41817
:1088A000A4880C80185800241060204670BD000079
:1088B000B8200020F7B53B4C82B060880F4681425B
:1088C0006ED80020694608703849374E4868C005A0
:1088D000C00D18D0103840B2002805DB8108344A9A
:1088E00089008918096806E00207120F083A920801
:1088F00092005118C9698007C00EC1400806850F53
:10890000012D01D10AE00425684636DF02280CD08B
:10891000002803D000221146FFF77AFF2278607802
:10892000A188884203DA401C02E072B6F6E7002014
:10893000C0B2904207D066786078884201DA401C65
:1089400000E000206070012D0BD062B66846007810
:1089500037DF022805D0002803D000221146FFF798
:1089600057FF1148864219D0A068F500049941517B
:10897000029900290CD0002F0AD060883A4646435D
:10898000E0683018FFF708FCA0682818878002E02C
:10899000002128188180002005B0F0BD0420FBE7ED
:1089A0000920F9E7B8200020FFFF000000ED00E0FB
:1089B00000E400E00EB504E068468188029A009861
:1089C000904702AA01A96846FFF752FF0028F3D09A
:1089D0000EBD000030B5CB0008339DB293070024D4
:1089E000002B01D0072030BD044B9A605219DA6089
:1089F0005C701C7058809980002030BDB820002029
:108A000070B5114CA568002D06D0002A06D00028AC
:108A100004D00023247809E0082070BD072070BD31
:108A200024265E43AE5D002E04D05B1CA342F7DB20
:108A3000042070BD242401265C432E556419617006
:108A4000A2610360002070BDC820002010B504465C
:108A5000082904D0002211461046FFF7D9FE2168EC
:108A60006068884710BD00001CB501910090034A62
:108A700008216846FFF71EFF1CBD00004D8A01005B
:108A8000FFB59807002481B01E4615460F46002802
:108A90000BD1002E09D001F02BFC22490A988861E5
:108AA0000F70324600208E6008E0072005B0F0BD50
:108AB00024234343D4549B181C75401CB842F7DB55
:108AC00024204743BB19032048700F461846CB604B
:108AD00019461830002218232E465E43D3005B1837
:108AE0001C705C709D7058603018521C032AF5DBB6
:108AF0000020C0433861BC70FC701420FFF7CAFC32
:108B000003211420FFF7EAFC1420FFF7CFFC064CEA
:108B10000198A06003211120FFF7E0FC60687861F4
:108B20000020C3E7C820002000150140FEB5044620
:108B30001D48174682680D46002A0CD001788C42E9
:108B400001D2052D01D20720FEBD21462423594321
:108B5000535C012B01D00820FEBD88184078012805
:108B60001ED0002601F0ACFEC0000F490190C9687C
:108B70004018694601F0CEFE002813D00121017093
:108B80000A49446049680830E2C007490198C96849
:108B90004118009848701420FFF794FC0020FEBD97
:108BA0002E46DFE70420FEBDC8200020001501404E
:108BB000F8B5144D0446A868002809D029788C42DD
:108BC00001D30720F8BD24216143405C012801D076
:108BD0000820F8BD01F074FEC600E8686946301848
:108BE00001F098FE00280BD0022101704460E86873
:108BF0003118009848701420FFF764FC0020F8BD7D
:108C00000420F8BDC820002038B50F4CA06800280B
:108C100016D001F055FEC500E0686946281801F03D
:108C200079FE00280ED003210170091F4160E06821
:108C30002918009848701420FFF744FC002038BD24
:108C4000082038BD042038BDC820002010B50146DA
:108C50000448FFF7FCFD0446022001F08DFA20468F
:108C600010BD00005427002070B50C4692B00021C2
:108C70006A46117007251171002809D0C17849078B
:108C80000CD502A9FFF7CCFC002808D102AE00E009
:108C90000026002C0ED0E078002802D0284612B022
:108CA00070BD01AA0AA92046FFF7BAFC0028F6D138
:108CB0000AAA00E00022684603790178304672DF94
:108CC000EDE7000070B50D4604991646040042D049
:108CD000002E40D0424800224271C360016124222C
:108CE00031464048FFF758FA00F0B8F83D493431B2
:108CF0000846103801602031816030215438FFF778
:108D000064FA3848217830380170A1788170E178B0
:108D1000C170617841706269216942610161E268F4
:108D2000A168C26081600146E369A269CB618A6182
:108D3000616A002919D00146A4310246B03241626D
:108D40008A60636A1B880B80616A436A898899809C
:108D50000021436A06E00E2070BD666AB668765C44
:108D60005654491C9E888E42F7D8A16A00291CD00F
:108D70001C4AAC3211460C398A608162A36A9B8816
:108D80008B80A16A836A098819800021836A04E0C4
:108D9000A66AB668765C5654491C9E888E42F7D8FF
:108DA0002C210A5D0F4910390A73216A002909D064
:108DB0000B4914310162226A52884A80216A026A90
:108DC000098811806168002904D00549891D416026
:108DD00061684160034829463038FFF745FF70BDA0
:108DE000542000205C26002010B502881A4C102A5E
:108DF00017D00021112A17D0192A11D18079002803
:108E00000ED1607901281BD002281FD003281FD063
:108E1000042805D12171E2680846002A00D0904755
:108E200010BD8088208110BD6170808821898842B2
:108E3000F9D1012005E021690029F4D0884710BD4F
:108E4000022000F013F80028F5D110BD0320F8E748
:108E5000032020710420F4E75420002010B50721DE
:108E60000148FFF7B2F910BD6C200020F0B5754C39
:108E700087B06071002606A8069601F025FA012742
:108E8000082806D000286FD10698002802D0277045
:108E9000D4E00696FFF7E2FF6B4D6878002802D019
:108EA0006079012805D0A87800280AD060790228C6
:108EB00007D1E168002903D0E7700820884700E067
:108EC000E6706079012808D16878002809D05D48EB
:108ED000193001F0EEF9002803D06079022802D0A1
:108EE0000CE002206071A878002805D055481930A0
:108EF00001F0DFF9002801D103206071287B0028F0
:108F000004D16079032801D104206071287E0028F3
:108F100004D16079042801D166712671E1680029C5
:108F20000AD06079032801D0042805D128780028C8
:108F300002D06078002818D0A67018216846FFF784
:108F400044F9684606700196067203966079012816
:108F50000FD0022816D03C4E24363746543F032803
:108F60001CD004285ED13BE069E0A7700720884749
:108F7000E3E734481830019068460770468206825D
:108F8000277152E02F4818300190684607702989F0
:108F90004182A98801820220207146E0A88A6946A0
:108FA0004882288A08822848243001F029FD0028B8
:108FB00005D02878002802D06078002801D003204E
:108FC0002FE002206946087204200396F8701E48BC
:108FD00000213038FFF748FE002830D1052020E07E
:108FE000A88B69460882288C48821748243001F0F3
:108FF00007FD002805D02878002802D060780028D6
:1090000001D004200DE00220694608720420039676
:10901000F8700D4800213038FFF726FE00280ED1E9
:10902000062020716079002803D0684673DF00288D
:1090300005D1E168002901D020798847002007B0D8
:10904000F0BD0000542000205C26002070B50546CD
:1090500001461C220F48FFF79FF80F4C0026267090
:109060002968002907D00822A018FFF795F82046A4
:1090700008307ADF02E0084808307BDF002808D19A
:10908000401E608004486670044A0021001DFFF7FE
:10909000B7FC70BD28270020742000205DA80100C7
:1090A000F8B5224C028800271F4DE689102A16D0F9
:1090B00029464968112A21D0122A2DD0502A1CD1C4
:1090C000C288801DB24218D1028B022A15D1C27EFD
:1090D000837E10021843C007C00F0CD112E08188B4
:1090E000698001461048082216311030FFF754F805
:1090F0006F70002E01D100F0D9FBF8BD0020C043F5
:1091000068806F700846FFF753FD0028F5D0A1690D
:109110000029F2D08847F8BD811D0348082210308D
:10912000FFF73AF8E7E70000742000202827002026
:1091300010B50446FFF7B4FF2146064800F062F878
:10914000204600F0C9FF2046FFF74EFE204600F003
:10915000DBF810BDE825002070B5294B0D46040052
:109160000FCB86B06E460FC647D0002D45D00020ED
:10917000C043A085286860630021204620308173A9
:10918000C1730174417481742146684663DF00280D
:1091900031D121786846817401210182A21C04A981
:1091A0000120A0DF002826D1231D022229462046C7
:1091B00000F08EFA064623460C3303222946204649
:1091C00000F086FA0643234614330422294620463B
:1091D00000F07EFA064323461C330522294620462A
:1091E00000F076FA06432346243306222946204619
:1091F00000F06EFA304306B070BD0E20FBE70000B1
:1092000010AA010010B500280AD0002908D00A8849
:10921000102A06D0112A06D0502A01D100F0F0FF02
:1092200010BD898801E00021C943818510BD00007F
:109230001FB584B000282AD0828D1E4CA24228D0AF
:109240008488024620329C4202D1947B002C20D09C
:1092500084899C4202D1D47B002C1AD0848A9C42FF
:1092600002D1147C002C14D0848B9C4202D1547CFB
:10927000002C0ED0848C9C4202D1927C002A08D013
:109280006A46128B142A06D9072008B010BD0E209A
:10929000FBE70820F9E70022009201926A4613805A
:1092A000039106A9029101219170808D6946A6DF84
:1092B000EBE70000FFFF000041780278080210434E
:1092C000C007C00F7047000010B50D4913120B7096
:1092D0004A70020E091D0A7002144A7002128A7046
:1092E000C870084C0222A38B091F2046FFF7A0FF7D
:1092F0000349A38A0422091D2046FFF799FF10BDE8
:1093000018200020E825002010B51C4C018860685A
:1093100010290DD011290AD1401E606007D1FFF736
:1093200024FA002803D02168002900D0884710BD06
:1093300000281ED100210122084600F079F80028FB
:1093400001D0072811D107220221012000F070F876
:10935000002801D0072808D104220221002000F0B3
:1093600067F8002805D0072803D02168002900D01D
:1093700088476068401C606010BD000048200020E5
:1093800010B5032000F07EF9002801D0062800D196
:10939000002010BDF8B507460024224802E0641CF6
:1093A000042C19D2A2008258BA42F8D1042C13D24C
:1093B0001D4E1E4DF069002928D001290DD002292B
:1093C0000AD16000201840194578002D04D0F168BA
:1093D000002901D028468847F8BD61006218294657
:1093E000AD5C511800914978002909D071680A22B2
:1093F00051430D4A521CFFF799FB002800D17770AA
:1094000000988178084810300155DEE7FFF7D0FB5F
:1094100005486100611810304919005D8D78A84237
:10942000D3D0F8BD20AA010028200020202600204B
:1094300070B50023042811D2440004190D4D012AEF
:1094400002D101290DD0002246008019094E801951
:1094500000290CD0012906D0022906D0072318467E
:1094600070BD0D30C2B22A55F9E74270F7E782703D
:10947000F5E700002026002010B5054A0146127AC3
:109480000020D20702D0084600F004F810BD00000A
:1094900028200020FEB5784906464F684B690093A6
:1094A000BB00FB1800200122019352050546734CB6
:1094B0003300FEF7E1FF180D13133749596C828E04
:1094C000858E97A1A5A5A5A5A5C3C8CDD4DADA1226
:1094D0000B225205A260E5600D70FEBD05208005DF
:1094E000A060E56060680F235B055840800209D5E5
:1094F000A260E560022E02D1E120C0000AE07D20DA
:10950000400107E0E260A560022E01D1C82001E021
:10951000FF2091300E706421FEF728FE7843002270
:10952000014646E005208005A060E56060680F23E5
:109530005B055840800204D5A260E5601920400117
:10954000E8E7E260A560E1E705208005A060E5604E
:1095500060680F235B055840800202D5A260E56079
:10956000CDE7E260A560D3E705208005A060E56057
:1095700060680F235B055840800202D5A260E56059
:1095800001E0E260A5600E707900002211E0052084
:109590008005A060E56060680F235B05584080028D
:1095A00002D5A260E56001E0E260A5600E700022D5
:1095B00039460098FFF7BAFAFEBD05239B0544E043
:1095C0006068012189050A468243A2600840E06084
:1095D00010E061680120800502468A43A2600140D4
:1095E000E160E4E761680120800502468A43A260E9
:1095F0000140E1600199C8E70F214905E1601BE0E6
:109600000F468869FFF7D4FA11218A1B1C4E01D03E
:10961000002802D0A660E560FEBD012A0BD91046E5
:10962000C82148436421FEF7A1FD79680022414327
:10963000B869FFF77BFAE660A560FEBD0F22520510
:10964000A260E56015E007239B05A360E5600EE0DE
:109650000D225205A260E5600122920507E0032277
:10966000D205A260E560921001E00F225205E2608F
:10967000A5600E70FEBD00002820002000050050EF
:1096800000008000F0B500210B4C0C4D03273F0477
:109690008A00A25892005619326801238B40034079
:1096A00000D00323BA431B0413433360491C04292D
:1096B000EED30020F0BD000020AA010000070050FA
:1096C0000249091828200856704700003C2800204D
:1096D000FFB500240546601C01078FB0090F08A8DC
:1096E000103108940170601C0107090F08A810319F
:1096F00041708178F9263140891C817017461C2100
:1097000001A8FEF762FD6846017910200143684612
:109710000171029408A8049405940794069029788E
:1097200081716846878401200146684610310094A3
:109730000170012001466846103141708178F720A0
:109740003140891C0140EF20014001263143684629
:10975000817014210AA8FEF738FD09A80A9068460E
:109760000B90068644861421818668880AAA01A97E
:10977000129BA2DF13B0F0BD10B5FFF745FA10BD84
:10978000F8B5224801694A1C3CD024225143826822
:1097900089184E681E494C6847690079E11B0D0223
:1097A0002D0AED1C002815D101201A49000448603B
:1097B0001849403948601120FEF76CFE1120FEF771
:1097C00075FE1549012008602F20FEF7A3FC0F4904
:1097D00001200871B54200D23546E81900020C4953
:1097E000000A403108600A494968001B091B090248
:1097F000090A0002000AC91C814202D91120FEF7A1
:1098000061FEF8BD00F074FDF8BD0000C820002026
:10981000001501404013014000100140F8B50D460D
:1098200011780646881D14461F2801D90C20F8BD62
:1098300033880720062BFAD31927FF01BB4202D930
:10984000164A9342F3D17288062AF0D3BA4202D95B
:10985000124FBA42EBD1114FBB4203D0BA4201D0F2
:109860009342E4D8481C052220706A5420781222C2
:10987000411C21702A5420784119308800F0E8FFFB
:1098800021784018C0B220704119708800F0E0FFC4
:109890002178401820700020F8BD0000FFFF000074
:1098A00010B500221146FEF7B3FF10BDF8B51648FB
:1098B00000F0E2F8144D0026103D144C002807D0AB
:1098C000616900291BD001206A461070684615E0C6
:1098D0002878002805D06169002910D068460670F4
:1098E0000CE0687800280CD0A16800226868FFF7B7
:1098F0001DF9002803D0A169002900D088472E70E7
:10990000F8BD6168F1E700008420002028270020CE
:1099100010B5074A01210748FFF772F804460548C9
:10992000054A0121001DFFF76BF8204310BD000020
:10993000418501002020002049A4010010B50E49F6
:1099400000238A78CC78A24212D0521CD2B28A70FC
:10995000022A00D18B708A78074B92001C339A58E8
:109960000260486910180002000A4861012010BD19
:109970000360002010BD0000C8200020F7B5144C83
:109980000025A76823691EE024215943C9194E68A0
:10999000864202D9301A486017E0801B75190026EC
:1099A0004E600E750E699C460B6AB646002E0AD0B4
:1099B000019E76193602360A8E607646CE601668AB
:1099C0000E6261461160591CDED12361FEBD0000AC
:1099D000C820002010B5062206493B2000F0A8FA56
:1099E000044904460622891D432000F0A1FA2040C4
:1099F00010BD00000B200020F8B51E4C2078002878
:109A000037D02069002807D00026E068002805D05C
:109A10000025002E04D013E00126F6E70125F8E723
:109A2000684651DF052806D0002806D000221146DE
:109A3000FEF7EEFE04E0012602E021690098884767
:109A4000002D12D1608869460880A06861DF052872
:109A500006D0002806D000221146FEF7D9FE04E009
:109A6000012502E0E168A0688847002ED8D0002DCB
:109A7000CFD0F8BDEC2000204188054802889142F3
:109A800004D34088814201D80120704700207047EC
:109A90007C2000201048018CC9B2012917D1818C8B
:109AA000090714D1018D09060A0F03D1828D120610
:109AB000120F0ED0090F012903D1828D1206120F49
:109AC00007D0032903D1808D0006000F01D00020AC
:109AD0007047012070470000C00F00F0F8B5234820
:109AE00001690091457833E02048E900C0680E180C
:109AF00034782AE0182060437168641C0818B17833
:109B0000E4B2A14200D100240178022902D0032945
:109B10001BD113E0154A40682421926841438F18F5
:109B2000397D002911D000F0DFFC002038750CE0F1
:109B300024277843C0180275006A03E00B4900220D
:109B40008B680869471CF3D108617078A042D1D1B5
:109B500028466D1EEDB20028C6D104480169009860
:109B6000814201D00120F8BD0020F8BDC8200020AE
:109B7000F8B50446384800270169009146785CE052
:109B80003548F100C2688D1851E0601C07D0324A98
:109B900024209268604321468018046A24E02878D3
:109BA000182141436A68401CC0B252182870A97835
:109BB000884200D12F70284B516824209B6848436D
:109BC000C0181378012B34D1037D002B31D1936859
:109BD0008360D368C360136903615269C2611E4A1E
:109BE0005279002A00D087601B4B82685B699646D9
:109BF0009C46D31A1A02194B120A9A4202D2C3681F
:109C0000D21808E0724663469A1A1202C368120A12
:109C1000934202D99A1A426000E0476087600122AD
:109C2000C7600275921E0262084600F02BFC601CA1
:109C3000ABD1287869788842A7D13046761EF6B233
:109C400000289DD1044801690098814201D001207B
:109C5000F8BD0020F8BD0000C8200020FFFF7F00F5
:109C600088B0574A0F210820FEF7B4FE002803D021
:109C700000221146FEF7CCFD52480090524B0522BF
:109C80000A210020FEF7FCFE002803D00022114626
:109C9000FEF7BEFD4D48032606604C4800242438DC
:109CA000046001254A4FED04BD60FFF731FE00E07E
:109CB000FD6000F0D3FC0028FAD0642000F0BEF96B
:109CC00000E0FD6000F0C6F80028FAD0BD603C4915
:109CD000002348225C39082000F09EFB002803D0B6
:109CE00000221146FEF794FD00946846019404702A
:109CF00060DF002803D000221146FEF789FD3548B9
:109D000000F080FB002803D000221146FEF780FD02
:109D100011206946087206222FA102A87CDF0028C4
:109D200003D000221146FEF773FD0094102168460F
:109D3000019401803C214180FF2184809131C180C8
:109D40007ADF002803D000221146FEF761FD244887
:109D5000009069462348FFF7FFF9002803D000224E
:109D60001146FEF755FDFEF71FFD1C216846FEF764
:109D70002CFA0520C00301900F20000402900094EB
:109D800068460673C4810474174805901748069006
:109D90006846FFF75BF9002803D000221146FEF762
:109DA00037FD0320FFF762F802E0FEF703FE48DF0D
:109DB0000028FAD000221146FEF72AFDF5E7000040
:109DC00090210020698A0100902200204C07005059
:109DD000000500503191010053454E534F52000091
:109DE0008DA00100E825002055A10100A1980100E7
:109DF00070B5054600790E46801C1446C0B2117835
:109E0000821C8A181F2A01D90C2070BD0A46491CE1
:109E10002170401CB0542078FF22411C2170325424
:109E200020788119288800F013FD21784018C0B2ED
:109E30002070AA88002A09D0A968002908D08019B2
:109E4000FEF7AAF92078297940182070002070BD0B
:109E5000072070BDF0B58DB0692000901A200390E6
:109E60001B2002906B2001902C49D2200870072003
:109E70006946087700252AA008950068099029A05E
:109E800000680A9028A000680490059527A0006843
:109E90000B9019271C2608AB01220199009800F0AD
:109EA0007DF8044607AB01226821009800F076F89F
:109EB000044009AB01223946009800F06FF80440D5
:109EC0000AAB01220399009800F068F8044004AB43
:109ED00001220299009800F061F8044005AB0122CC
:109EE0003146009800F05AF8204006460BAB01229C
:109EF0000199009800F052F8694604460D76344006
:109F000006AB01227521009800F02CF86946097E05
:109F10002040682900D000200DB0F0BD0A200020AC
:109F20001300000004000000120000000100000007
:109F3000F7B50B4C15460E460023012269462078E2
:109F400000F016FC07462078012108430B462A46FC
:109F5000314600F00DFC014639400846FEBD0000C8
:109F60000A20002070B515460B4A400611701E46A7
:109F7000040E002301220849204600F0F9FB0121CC
:109F8000204608430B462A46314600F0F1FB0028E4
:109F900000D0012070BD00000020002070B50B4CE7
:109FA0002170012104E05D18203DED7F6554491CBE
:109FB0009142F8DD4006521C000ED2B20123034943
:109FC00000F0D6FB002800D0012070BD0021002049
:109FD000F8B514780746A01C15460E461F2803D86E
:109FE0007878801C1F2801D90C20F8BD1D20001B8B
:109FF00080B26946864608803019801C7DDF0028C3
:10A00000F3D13878022805D168460088704501D818
:10A01000092107E078780821002801D0704501D98E
:10A0200068460088421C3255641CE2B2B15429785B
:10A03000801C081828700020F8BD000031B5054CC0
:10A0400004E0401E00902046FEF754F800980028D7
:10A05000F7D138BDE70300008200064810180268F7
:10A0600003231B049A430260026809040A43026046
:10A07000704700000007005003494018006801289D
:10A0800000D00020704700000060004070B5164608
:10A090000D46002405E0285DFEF7D8FD0028FAD122
:10A0A000641CB442F7D30A20FEF7D0FD0028FAD191
:10A0B00070BD10B500280BD0032808D10220FFF78F
:10A0C000DBF9002803D000221146FEF7A1FB10BDEA
:10A0D00000F078F910BD000070B501881C4C0546F1
:10A0E000102912D011291ED020464088132929D0CA
:10A0F000522909D100231A461946A9DF002803D0A6
:10A1000000221146FEF784FB70BD0720FFF7B4F96B
:10A11000002803D000221146FEF77AFBA888608051
:10A1200000F00CF970BD0020FFF7A6F9002803D05D
:10A1300000221146FEF76CFB0020C0436080FFF751
:10A140001BFB70BD00231A4685217FDFD6E7000088
:10A150000220002010B50078002809D105483B21D5
:10A16000408876DF002803D000221146FEF750FB1E
:10A1700010BD00000220002010B51D4A1D4903003B
:10A18000FEF77AF905040B312027120048780128E0
:10A190001FD0022808D1032005E04878002804D009
:10A1A000032801D10220487010BD134B0420186011
:10A1B000124B012018609368D2689A42F3D0FEF7E0
:10A1C000E7F910BD4878012806D0022804D00328FA
:10A1D000F7D1FEF715FA10BD9068D1688142EED133
:10A1E000FEF7FCF910BD48780128E8D010BD00004A
:10A1F000542700208C200020002500400020004033
:10A20000F8B506468C1DC8883289203135460127AD
:10A210002035009190420BD1208B022808D10846AE
:10A22000FFF74AF8002801D0AF7301E00020A873BF
:10A230002088318A88420BD1208B022808D10098CF
:10A24000FFF73AF8002801D0EF7301E00020E8732F
:10A250002088318B88420BD1208B022808D10098AE
:10A26000FFF72AF8002801D02F7401E0002028749D
:10A270002088318C88420BD1208B022808D100988D
:10A28000FFF71AF8002801D06F7401E0002068740D
:10A290002088318D884208D1208B022805D1009872
:10A2A000FFF70AF8002801D0AF74F8BD0020A874A9
:10A2B000F8BD0021425C002A01D001207047491CF2
:10A2C0000629F7D30020704707490979490701D4C7
:10A2D00008207047002804D0044949780160002014
:10A2E00070470E2070470000942000206427002053
:10A2F00070B501240D4960040860BFF34F8FBFF3B0
:10A300006F8F0B4940108860094940398860094DBA
:10A310006C602F20FDF7FEFEAC60074D00242F205F
:10A320006C61FDF7F7FE2C7170BD000080E100E06C
:10A330004013014000100140C820002010B500F07B
:10A3400095F8FEF719F910BDF7B582B002981446DA
:10A35000806A0F46002833D00298002520300090F4
:10A3600028E00298816A0C2068430E182178307921
:10A370004A1C2270C01C785420781622411C21707F
:10A380003A542078C119308800F062FA21784018D8
:10A39000C0B22070B288002A09D0B16800290FD05D
:10A3A000C019FDF7F9FE20783179401820706D1C36
:10A3B0000098EDB2007BA842D3D8002005B0F0BDD4
:10A3C0000720FBE710B50020FFF756F8002803D060
:10A3D00000221146FEF71CFAFEF7D2FF002803D038
:10A3E00000221146FEF714FA3CDF002803D00022B9
:10A3F0001146FEF70DFA10BD10B508461146C046CD
:10A40000C04610BD002803D00249C8600020704734
:10A410000E207047EC20002070B5002901D08C0779
:10A4200001D0072070BD064C0125A160628005495E
:10A43000636010DF0028F5D1257016202EDF70BD77
:10A44000EC200020F9A3010010B5FEF73DFF054800
:10A450000A0A0270417004480222838C0149FEF707
:10A46000E7FE10BD1A200020E825002010B50448A2
:10A47000032100228903C068FEF758FB10BD0000CD
:10A4800018200020F0B5174F2421BC6841430D1956
:10A4900039694A1C09D024224A4316196B6872682C
:10A4A000934204D8D21A726029623861F0BD0A461C
:10A4B00002E00A46396A9B1B4E1C0BD024264E43F1
:10A4C00037197E689E42F4D324264E4336197768A6
:10A4D000FF1A77606B60296224214A4311190862D0
:10A4E000F0BD0000C820002070B5194C2269A56895
:10A4F0001346114606E0814207D00A4624267143DE
:10A500004919096A4E1CF6D170BD002EFCD08A4252
:10A510000CD1242043435819006A2061401C05D106
:10A520000C4B01209860002363616071242041433B
:10A530004819242341685A43006A52191062421C88
:10A54000E2D024225043401942685118416070BD46
:10A55000C820002000100140F8B51E4C2569681C79
:10A5600036D01D48002640686169401A07023F0A3C
:10A5700019E024204543A0682A185068B84214D82E
:10A58000A3693F1A8619156A002B09D0D169906911
:10A590009847002807D000221146FEF739F902E05B
:10A5A0009169D0698847681CE3D1A178E07881423D
:10A5B00006D1401CC0B2E070022801D10020E0703A
:10A5C00004490006800D1C310E501420FDF77AFF5F
:10A5D000F8BD0000C820002000150140FEB51B4852
:10A5E00001680291002101601948416801911949EF
:10A5F0004160426900924161174C2020A060022511
:10A60000A5600420FDF766FD2069800602D520695B
:10A6100080070CD400261127E5600420FDF75AFDC1
:10A62000A5600420FDF756FD2069800601D50126AE
:10A6300001E07F1EF0D20648019941600099416116
:10A640000249029808603046FEBD00000045004007
:10A65000000700500D0600000005005010B50F491E
:10A660000D48486048610E4900208860C8610D4867
:10A67000012282600523C360CD21C9044162084CD8
:10A68000094938340C61064CE43C4C618A60036033
:10A69000FFF7A4FF10BD00000C06000000070050EB
:10A6A000004100400045004000F50140F7B52B4F48
:10A6B0000E0013D02A4B2B48012E11D02849083107
:10A6C000416101214160264C0025EC34A560244AFB
:10A6D000143A1160A068002804D008E00020FEBDF4
:10A6E0004361EEE7606A002801D17F1EF2D1A560C8
:10A6F000002F02D0606A00280ED065621A4C2560D7
:10A700001A4EF5630520FDF7E5FC0120F0630520F6
:10A710002060FFF7A3FFE1E7134880690099761EE8
:10A7200008700098F6B2401C0090012E09D0002E4F
:10A730000BD01420FDF7CEFC094901201439086222
:10A74000C8E7084906484861F3E760680028FCD07C
:10A750006560044901208860FEBD0000204E0000B5
:10A760001440004000F5014000450040C04F00404B
:10A77000FFB5002481B01F4616460546002A11D0B9
:10A78000FFF72CFF00280DD0084968088860E8070B
:10A7900002983A46314602D0FFF788FF01E000F008
:10A7A00007F80446204605B0F0BD00008045004093
:10A7B000F8B5224E964600290DD0214A0378D36180
:10A7C000401C204F01258446BD601F4B0024D869E2
:10A7D000002802D004E00020F8BD586A002812D0FA
:10A7E000002E02D0586A002810D05C62144E3460EB
:10A7F000164FFC630520FDF76DFCFD6305203060FE
:10A80000FFF72CFFE7E7761EE1D1EEE7DC61491E9A
:10A810000906090E07D0604602780948C261604601
:10A82000401C8446D3E77046002804D05C607D61FC
:10A8300058680028FCD00120F8BD0000204E000020
:10A84000004500400040004000410040C04F004033
:10A850000870000A487002207047000038B515499A
:10A86000154A488890420FD04A78144C521CD2B2F4
:10A870004A70237B934208D3083175DF002803D048
:10A88000A169002900D0884738BD00254D70217C82
:10A89000002907D03B2176DF002803D0A1690029D9
:10A8A00000D0884761690029EED068460570884766
:10A8B00038BD000074200020FFFF00002827002082
:10A8C00012494868C005C00D19D0103840B20028A0
:10A8D00005DB81080E4A89008918096806E002072D
:10A8E000120F083A920892005118C9698007C00EE9
:10A8F000C1400806800F012803D0032803D002209E
:10A9000070470020704701207047000000ED00E014
:10A9100000E400E042788378521C934200D1002288
:10A920000378934201D1002070470A604168407863
:10A930001822504308187047F8B51546069C1E4665
:10A9400007460222009400F00AF8002806D1334698
:10A95000102229463846009400F001F8F8BDFFB5F2
:10A9600083B0074600200C9C8646267805463AE0D0
:10A970007868A90041180A88684682804988C180A1
:10A980000022694601A865DF002810D168460178D9
:10A990000598814226D17046002801D0002200E0AF
:10A9A00002222078891841181F2902D90C2007B0EB
:10A9B000F0BD7146002908D1401CC0B2411C069B65
:10A9C000049A21701A5401208646217806980A18A4
:10A9D000694601A865DF0028E9D169462078097831
:10A9E000401820706D1C3888A842C1DC70460028D1
:10A9F00004D020780699801B401E88550020D6E799
:10AA00000179002902D1007B002800D00120704785
:10AA10009ECADC240EE5A9E093F3A3B50000406EC6
:10AA200011000000120000001300000014000000DC
:10AA3000110003009593010012000300959301009B
:10AA40001300030095930100140003009593010087
:10AA500070AA0100002000200001000020850100F4
:10AA600070AB010000210020900F00003085010034
:10AA700000000000FFFF01000200000000000000D5
:10AA800000000000000000000000000000000000C6
:10AA900000000000000000000000000000000000B6
:10AAA00000000000000000000000000000000000A6
:10AAB0000000000000000000000000000000000096
:10AAC0000024F4000000000000000000FFFF000070
:10AAD0000000000000000000000000000000000076
:10AAE0000000000000000000000000000000000066
:10AAF0000000000000000000000000000100000055
:10AB00000000000000000000000000000000000045
:10AB10000000000000000000000000000000000035
:10AB20000000000000000000000000000000000025
:10AB30000000000000000000000000000000000015
:10AB40000000000000000000000000000000000005
:10AB500000000000000000000000000000000000F5
:10AB600000000000000000000000000000000000E5
:04000005000180C1B5
:00000001FF
